{
  "contractName": "SimpleStorage",
  "abi": [
    {
      "inputs": [
        {
          "internalType": "uint256",
          "name": "",
          "type": "uint256"
        },
        {
          "internalType": "uint256",
          "name": "",
          "type": "uint256"
        }
      ],
      "name": "hasViewed",
      "outputs": [
        {
          "internalType": "bool",
          "name": "",
          "type": "bool"
        }
      ],
      "stateMutability": "view",
      "type": "function",
      "constant": true
    },
    {
      "inputs": [
        {
          "internalType": "uint256",
          "name": "",
          "type": "uint256"
        }
      ],
      "name": "profileViews",
      "outputs": [
        {
          "internalType": "uint256",
          "name": "",
          "type": "uint256"
        }
      ],
      "stateMutability": "view",
      "type": "function",
      "constant": true
    },
    {
      "inputs": [
        {
          "internalType": "uint256",
          "name": "_profileId",
          "type": "uint256"
        },
        {
          "internalType": "uint256",
          "name": "_viewerId",
          "type": "uint256"
        }
      ],
      "name": "incrementView",
      "outputs": [],
      "stateMutability": "nonpayable",
      "type": "function"
    },
    {
      "inputs": [],
      "name": "get",
      "outputs": [
        {
          "internalType": "uint256",
          "name": "",
          "type": "uint256"
        }
      ],
      "stateMutability": "view",
      "type": "function",
      "constant": true
    }
  ],
  "bytecode": "0x608060405234801561001057600080fd5b50610387806100206000396000f3fe608060405234801561001057600080fd5b506004361061004c5760003560e01c80634289f0a2146100515780636d4ce63c146100815780638c44f8d91461009f5780638f9acff2146100bb575b600080fd5b61006b60048036038101906100669190610221565b6100eb565b604051610078919061025d565b60405180910390f35b610089610103565b604051610096919061025d565b60405180910390f35b6100b960048036038101906100b49190610278565b610108565b005b6100d560048036038101906100d09190610278565b6101b7565b6040516100e291906102d3565b60405180910390f35b60006020528060005260406000206000915090505481565b600090565b808214158015610147575060016000838152602001908152602001600020600082815260200190815260200160002060009054906101000a900460ff16155b156101b3576001600080848152602001908152602001600020600082825461016f919061031d565b925050819055506001806000848152602001908152602001600020600083815260200190815260200160002060006101000a81548160ff0219169083151502179055505b5050565b60016020528160005260406000206020528060005260406000206000915091509054906101000a900460ff1681565b600080fd5b6000819050919050565b6101fe816101eb565b811461020957600080fd5b50565b60008135905061021b816101f5565b92915050565b600060208284031215610237576102366101e6565b5b60006102458482850161020c565b91505092915050565b610257816101eb565b82525050565b6000602082019050610272600083018461024e565b92915050565b6000806040838503121561028f5761028e6101e6565b5b600061029d8582860161020c565b92505060206102ae8582860161020c565b9150509250929050565b60008115159050919050565b6102cd816102b8565b82525050565b60006020820190506102e860008301846102c4565b92915050565b7f4e487b7100000000000000000000000000000000000000000000000000000000600052601160045260246000fd5b6000610328826101eb565b9150610333836101eb565b925082820190508082111561034b5761034a6102ee565b5b9291505056fea26469706673582212202dc0abe49b6927d46c8425bca6c9bb567904f4f80b9114c84c2a1598ce914e4c64736f6c63430008130033",
  "immutableReferences": {},
  "source": "// SPDX-License-Identifier: MIT\npragma solidity 0.8.19;\n\ncontract SimpleStorage {\n    // Lưu tổng lượt xem của từng profile\n    mapping(uint256 => uint256) public profileViews;\n\n    // Lưu vết: ProfileID => (ViewerID => đã xem hay chưa)\n    mapping(uint256 => mapping(uint256 => bool)) public hasViewed;\n\n    // Hàm tăng lượt xem có kiểm tra tính độc nhất\n    function incrementView(uint256 _profileId, uint256 _viewerId) public {\n        // Chỉ tăng nếu:\n        // 1. Người xem khác người được xem (_profileId != _viewerId)\n        // 2. Người xem này chưa từng xem profile này trước đây (!hasViewed)\n        if (_profileId != _viewerId && !hasViewed[_profileId][_viewerId]) {\n            profileViews[_profileId] += 1;\n            hasViewed[_profileId][_viewerId] = true;\n        }\n    }\n\n    // Giữ lại hàm cũ để tránh lỗi tương thích (không làm gì)\n    function get() public view returns (uint256) {\n        return 0; \n    }\n}\n",
  "sourcePath": "D:\\xampp\\htdocs\\Social\\Ganache_demo\\contracts\\SimpleStorage.sol",
  "compiler": {
    "name": "solc",
    "version": "0.8.19+commit.7dd6d404.Emscripten.clang"
  },
  "schemaVersion": "3.4.16",
  "updatedAt": "2026-04-21T17:01:13.719Z",
  "networkType": "ethereum",
  "devdoc": {
    "kind": "dev",
    "methods": {},
    "version": 1
  },
  "userdoc": {
    "kind": "user",
    "methods": {},
    "version": 1
  }
}